0200000000000100000009300034456000000001234456000000001234456F000000047935632156CLIENTE TESTE                                     F19900101123456789           1Rua Exemplo                                       0000000123Apto 1              Bairro Central                São Paulo                     SP01001000111000999999999                 0099                                                                                                                                                                                                                                                                                                                                                                                                                                                                                                               
0300000000000100000009300034456000000001234456000000001234456F000000047935632156CLIENTE TESTE                                     F19900101123456789           1Rua Exemplo                                       0000000123Apto 1              Bairro Central                São Paulo                     SP01001000111000999999999                 0099                                                                                                                                                                                                                                                                                                                                                                                                                                                                                                               
0400000000000100000009300034456000000001234456000000001234456F000000047935632156CLIENTE TESTE                                     F19900101123456789           1Rua Exemplo                                       0000000123Apto 1              Bairro Central                São Paulo                     SP01001000111000999999999                 0099                                                                                                                                                                                                                                                                                                                                                                                                                                                                                                               
0100000000000100000009300034456000000001234456000000001234456F000000047935632156CLIENTE TESTE                                     F19900101123456789           1Rua Exemplo                                       0000000123Apto 1              Bairro Central                São Paulo                     SP01001000111000999999999                 0099                                                                                                                                                                                                                                                                                                                                                                                                                                                                                                               
0400000000000100000009300034456000000001234456000000001234456F000000047935632156CLIENTE TESTE                                     F19900101123456789           1Rua Exemplo                                       0000000123Apto 1              Bairro Central                São Paulo                     SP01001000111000999999999                 0099                                                                                                                                                                                                                                                                                                                                                                                                                                                                                                               
0400000000000100000009300034456000000001234456000000001234456F000000047935632156CLIENTE TESTE                                     F19900101123456789           1Rua Exemplo                                       0000000123Apto 1              Bairro Central                São Paulo                     SP01001000111000999999999                 0099                                                                                                                                                                                                                                                                                                                                                                                                                                                                                                               
0400000000000100000009300034456000000001234456000000001234456F000000047935632156CLIENTE TESTE                                     F19900101123456789           1Rua Exemplo                                       0000000123Apto 1              Bairro Central                São Paulo                     SP01001000111000999999999                 0099                                                                                                                                                                                                                                                                                                                                                                                                                                                                                                               
0100000000000300000009300034456000000001234456000000001234456F000000047935632156CLIENTE TESTE                                     F19900101123456789           1Rua Exemplo                                       0000000123Apto 1              Bairro Central                São Paulo                     SP01001000111000999999999                 0099                                                                                                                                                                                                                                                                                                                                                                                                                                                                                                               
0200000000000300000009300034456000000001234456000000001234456F000000047935632156CLIENTE TESTE                                     F19900101123456789           1Rua Exemplo                                       0000000123Apto 1              Bairro Central                São Paulo                     SP01001000111000999999999                 0099                                                                                                                                                                                                                                                                                                                                                                                                                                                                                                               
0300000000000300000009300034456000000001234456000000001234456F000000047935632156CLIENTE TESTE                                     F19900101123456789           1Rua Exemplo                                       0000000123Apto 1              Bairro Central                São Paulo                     SP01001000111000999999999                 0099                                                                                                                                                                                                                                                                                                                                                                                                                                                                                                               
0400000000000300000009100000456000000001234457000000001234457F000000088935632156CLIENTE TESTE                                     F19900101123456789           1Rua Exemplo                                       0000000123Apto 1              Bairro Central                São Paulo                     SP01001000111000999999999                 0099                                                                                                                                                                                                                                                                                                                                                                                                                                                                                                               
0100000000000200000009300034456000000001234456000000001234456F000000047935632156CLIENTE TESTE                                     F19900101123456789           1Rua Exemplo                                       0000000123Apto 1              Bairro Central                São Paulo                     SP01001000111000999999999                 0099                                                                                                                                                                                                                                                                                                                                                                                                                                                                                                               
0200000000000200000009300034456000000001234456000000001234456F000000047935632156CLIENTE TESTE                                     F19900101123456789           1Rua Exemplo                                       0000000123Apto 1              Bairro Central                São Paulo                     SP01001000111000999999999                 0099                                                                                                                                                                                                                                                                                                                                                                                                                                                                                                               
0300000000000200000009300034456000000001234456000000001234456F000000047935632156CLIENTE TESTE                                     F19900101123456789           1Rua Exemplo                                       0000000123Apto 1              Bairro Central                São Paulo                     SP01001000111000999999999                 0099                                                                                                                                                                                                                                                                                                                                                                                                                                                                                                               
0400000000000200000009100000456000000001234457000000001234457F000000088935632156CLIENTE TESTE                                     F19900101123456789           1Rua Exemplo                                       0000000123Apto 1              Bairro Central                São Paulo                     SP01001000111000999999999                 0099                                                                                                                                                                                                                                                                                                                                                                                                                                                                                                               